:04000000A2EF09F072
:1000080000C021F001C020F002C01FF003C01EF0A4
:1000180004C01DF005C01CF006C01BF007C01AF094
:1000280008C019F009C018F00AC017F00BC016F084
:100038000CC015F0840E0401136F0F0E146F020E1E
:10004800156FF4EC08F0F2A215D0000E461802E184
:10005800010E45180FE1F292040E456E000E466E31
:10006800010E3B6E000E3C6E010E376E000E386EB0
:10007800356A366AF0A011D0000E3C1802E1010E74
:100088003B180BE1000E461802E1040E451805E185
:10009800F090030E3B6E000E3C6EF0A011D0000EE7
:1000A8003C1802E1030E3B180BE1000E461802E172
:1000B800040E451805E1F090020E3B6E000E3C6EF2
:1000C800F0A011D0000E3C1802E1020E3B180BE123
:1000D800000E461802E1040E451805E1F090010EE5
:1000E8003B6E000E3C6EF0A211D0000E3C1802E1EF
:1000F800010E3B180BE1000E461802E1040E4518EC
:1001080005E1F092020E3B6E000E3C6EF0A211D09B
:10011800000E3C1802E1020E3B180BE1000E4618D7
:1001280002E1040E451805E1F092030E3B6E000E45
:100138003C6EF0A211D0000E3C1802E1030E3B18F1
:100148000BE1000E461802E1040E451805E1F09295
:10015800010E3B6E000E3C6EF2A21DD0000E46183A
:1001680002E1040E451817E1000E3C1802E1010EE9
:100178003B1811E1F292020E456E000E466E960E85
:10018800436E000E446E010E226E000E236E020EA8
:10019800396E000E3A6EF2A21DD0000E461802E12A
:1001A800040E451817E1000E3C1802E1020E3B1838
:1001B80011E1F292020E456E000E466E7D0E436E00
:1001C800000E446E020E226E000E236E020E396E71
:1001D800000E3A6EF2A21DD0000E461802E1040E7F
:1001E800451817E1000E3C1802E1030E3B1811E117
:1001F800F292020E456E000E466E4B0E436E000ED6
:10020800446E030E226E000E236E010E396E000E30
:100218003A6EF0A011D0000E461802E1020E451801
:100228000BE1000E361802E1000E351805E1F090DA
:10023800010E356E000E366EF0A00FD0000E461877
:1002480002E1020E451809E1000E361802E1010E1E
:10025800351803E1F090356A366AF2A213D0000E21
:10026800461802E1020E45180DE1000E3E1802E1A3
:10027800000E3D1807E1F2920A0E3D6E000E3E6E2A
:100288007EEC06F0F2A211D0000E461802E1030E31
:1002980045180BE1000E381802E1010E371805E188
:1002A800F29293EC06F0376A386AF2A20DD0000E8B
:1002B800461802E1030E451807E1F292010E456E59
:1002C800000E466E416A426AF2A211D0000E46182C
:1002D80002E1060E45180BE1000E381802E1010E86
:1002E800371805E1F2924BEC07F0376A386AF2A248
:1002F8000DD0000E461802E1060E451807E1F292ED
:10030800010E456E000E466E416A426AF2A211D095
:10031800000E461802E1050E45180BE1000E3818CC
:1003280002E1010E371805E1F292BCEC06F0376ADB
:10033800386AF2A20DD0000E461802E1050E4518E3
:1003480007E1F292010E456E000E466E416A426A5E
:10035800F2A210D0000E461802E1070E45180AE175
:10036800000E381802E1010E371804E1F292A9DBF9
:10037800376A386AF2A20DD0000E461802E1070E5D
:10038800451807E1F292010E456E000E466E416A6D
:10039800426AF2B2F292F0B0F090F0B2F09221C05C
:1003A80000F020C001F01FC002F01EC003F01DC005
:1003B80004F01CC005F01BC006F01AC007F019C0F5
:1003C80008F018C009F017C00AF016C00BF015C0E5
:0403D8000CF0110014
:0A03DC000D0E0D6E0D2EFED712005F
:0A03E60000000000000000001200FB
:1003F0001D0E0C6E910E0D6E0D2EFED70C2EFCD721
:020400001200E8
:0C040200420E0D6E0D2EFED70000120001
:10040E00086A096A100E0C6E01340836093604505B
:10041E00085E0550D8A0053C095ED8B007D0045040
:10042E0008260550D8B0053C0926D890003601366E
:06043E000C2EEAD71200AB
:0A044400CBDF8B88C9DF8B98120014
:10044E00040112BF02D0809601D0808612BD02D068
:10045E00809401D0808412BB02D0809201D0808221
:10046E0012B902D0809001D080804EB002D084802C
:10047E0001D084908482B0DF849212B702D080962D
:10048E0001D0808612B502D0809401D0808412B340
:10049E0002D0809201D0808212B102D0809001D021
:1004AE0080804EB002D0848001D08490848294DF0C
:0E04BE0084924EA002D095DF01D09CDF120088
:1004CC00220E0C6E086A096A0A6A0B6A0C06D8B40A
:1004DC001FD0D8900B320A32093208320332023262
:1004EC0001320032D8A0F2D70C06D8B409D004508F
:1004FC0008260550092206500A2207500B22EAD77B
:10050C00045008260550092206500A2207500B22D7
:02051C001200CB
:10051E000B6A0A6A096A086A0E6A033408360450BE
:10052E00085E0550D8A0053C095E0650D8A0063CD2
:10053E000A5E0750D8A0073C0B5EE86AD8A0010EF1
:10054E000E5E0336070E0C6E0334083609360A3675
:10055E000B360E36045003A012D0085E0550D8A0FC
:10056E00053C095E0650D8A0063C0A5E0750D8A08E
:10057E00073C0B5EE86AD8A0010E0E5E11D008266D
:10058E000550D8B0053C09260650D8B0063C0A26C0
:10059E000750D8B0073C0B26E86AD8B0010E0E26DD
:1005AE0003360C2ED1D70234083609360A360B36EE
:1005BE000E36045003A012D0085E0550D8A0053C9C
:1005CE00095E0650D8A0063C0A5E0750D8A0073C2C
:1005DE000B5EE86AD8A0010E0E5E11D008260550FB
:1005EE00D8B0053C09260650D8B0063C0A2607505E
:1005FE00D8B0073C0B26E86AD8B0010E0E2602369C
:10060E00070E0C6E0234083609360A360B360E36D5
:10061E00045002A012D0085E0550D8A0053C095E19
:10062E000650D8A0063C0A5E0750D8A0073C0B5EC9
:10063E00E86AD8A0010E0E5E11D008260550D8B07B
:10064E00053C09260650D8B0063C0A260750D8B0FD
:10065E00073C0B26E86AD8B0010E0E2602360C2E89
:10066E00D1D70134083609360A360B360E36045009
:10067E0002A012D0085E0550D8A0053C095E0650B7
:10068E00D8A0063C0A5E0750D8A0073C0B5EE86A6D
:10069E00D8A0010E0E5E11D008260550D8B0053C2C
:1006AE0009260650D8B0063C0A260750D8B0073C9B
:1006BE000B26E86AD8B0010E0E260136070E0C6E18
:1006CE000134083609360A360B360E36045001A0B0
:1006DE0012D0085E0550D8A0053C095E0650D8A081
:1006EE00063C0A5E0750D8A0073C0B5EE86AD8A00D
:1006FE00010E0E5E11D008260550D8B0053C092615
:10070E000650D8B0063C0A260750D8B0073C0B2638
:10071E00E86AD8B0010E0E2601360C2ED1D7003461
:10072E00083609360A360B360E36045001A012D0A2
:10073E00085E0550D8A0053C095E0650D8A0063CC0
:10074E000A5E0750D8A0073C0B5EE86AD8A0010EDF
:10075E000E5E11D008260550D8B0053C092606506D
:10076E00D8B0063C0A260750D8B0073C0B26E86ADC
:10077E00D8B0010E0E260036070E0C6E0034083669
:10078E0009360A360B360E36045000A012D0085E1B
:10079E000550D8A0053C095E0650D8A0063C0A5E5E
:1007AE000750D8A0073C0B5EE86AD8A0010E0E5E7B
:1007BE0011D008260550D8B0053C09260650D8B0F1
:1007CE00063C0A260750D8B0073C0B26E86AD8B07C
:1007DE00010E0E2600360C2ED1D700B00ED00450CE
:1007EE0008260550D8B0053C09260650D8B0063C60
:0C07FE000A260750D8B0073C0B2612005A
:10080A00800E006E3E0E016E000E026E036E120026
:10081A0004012207220722C401F02207015000081E
:10082A0003E200000000F7D700000000000000000B
:04083A0000001200A8
:0E083E008B988B848B960BC483FFFDDD12001C
:0C084C004E900BC412F4FDDD4E80120033
:10085800D8DFE80E046E030E056E000E066E076EF6
:1008680031DE00C01EF401C01FF402C020F403C032
:1008780021F416C404F017C405F0000E066E076EC6
:100888004ADE00C01EF401C01FF402C020F403C0F9
:1008980021F400C005F001C006F002C007F003C053
:1008A80008F00832073206320532089E083207324D
:1008B80006320532089E05C000F006C001F007C0E8
:1008C80002F008C003F00332023201320032039E04
:1008D80000C01AF401C01BF494DF18C404F019C452
:1008E80005F0000E066E076EEDDD1AC409F01BC494
:1008F8000AF0000E0B6E0C6E030E086E09C004F0B1
:100908000AC005F00BC006F00CC007F0085007E05D
:1009180004360490053606360736FF0FF8D7FBDD98
:1009280000C01EF401C01FF402C020F403C021F46B
:100938000A0E046E000E056E1AC400F01BC401F006
:1009480062DD00C01AF401C01BF4000E015C02E174
:10095800030E005C01E242D051C0E9FF52C0EAFF39
:1009680004012151000808E12051000805E11F5148
:10097800000802E11E5100082FE25050EF121B53ED
:100988000DE01C6B1D6B000E1D5D02E11B511C5D13
:1009980005E2226B3EDF1C4B1D2BF5D71AC422F44F
:1009A80038DF4F50EF161B530DE01C6B1D6B000E0C
:1009B8001D5D02E11B511C5D05E2226B2ADF1C4B09
:1009C8001D2BF5D71AC422F424DF010E1E5F000E7A
:0E09D8001F5B205B215BC4D74F50EF1612004F
:1009E60004010F6B050E0F5D0AE20F510D25E16E36
:1009F600000E0E21E26E200EE66E0F2BF3D70F517E
:100A06000D25E16E000E0E21E26EE66A0F070F510C
:100A16000D25106F000E0E21116F0A0E046E000ECA
:100A2600056E0BC400F00CC401F0EEDC08C000F04B
:100A360009C001F0300E002610C4E1FF11C4E2FF28
:100A460000C0E6FF0A0E046E000E056E0BC400F031
:100A56000CC401F0D9DC00C00BF401C00CF4000E8C
:100A6600011802E1000E001801E102D00F07CFD7EE
:020A760012006C
:100A78008B948B96B80E04010B11836EDFDC120089
:100A88007F0E04010B15006E00C00BF48B948B963F
:100A9800BF0E001600C00BF4008C00C00BF400C0A1
:060AA80083FFCCDC12000C
:100AAE007F0E04010B15016E01C00BF401AC03D0D7
:0C0ABE008B808B9202D08B908B821200F8
:100ACA000B0E0401166F020E176F900E186F010EAF
:100ADA00196FBDDE4A0E0401166F010E176F900ED4
:100AEA00186F010E196FB3DE4A0E0401166F010E5C
:100AFA00176F900E186F010E196FA9DE0B0E040105
:100B0A00166F020E176F900E186F010E196F9FDE87
:100B1A000B0E0401166F020E176F400E186F060EA9
:100B2A00196F95DE4A0E0401166F010E176F900EAB
:100B3A00186F010E196F8BDE4A0E0401166F010E33
:100B4A00176FC80E186F000E196F81DE0B0E0401A5
:100B5A00166F020E176F900E186F010E196F77DE5F
:100B6A000B0E0401166F020E176FC80E186F000ED7
:100B7A00196F6DDE0B0E0401166F020E176F900EC1
:100B8A00186F010E196F63DE5D0E0401166F010EF8
:100B9A00176F900E186F010E196F59DE4A0E040175
:100BAA00166F010E176F900E186F010E196F4FDE38
:100BBA00250E0401166F010E176F900E186F010EA5
:100BCA00196F45DE250E0401166F010E176FC80E48
:100BDA00186F000E196F3BDE250E0401166F010E09
:100BEA00176F900E186F010E196F31DEEE0E0401A9
:100BFA00166F010E176F900E186F010E196F27DE10
:100C0A00EE0E0401166F010E176F400E186F060ED6
:100C1A00196F1DDE250E0401166F010E176F900E57
:100C2A00186F010E196F13DE250E0401166F010EDF
:100C3A00176FC80E186F000E196F09DEEE0E040149
:100C4A00166F010E176F900E186F010E196FFFDDE8
:100C5A00EE0E0401166F010E176FC80E186F000E04
:100C6A00196FF5DD250E0401166F010E176F900E30
:100C7A00186F010E196FEBDD4A0E0401166F010E93
:100C8A00176F900E186F010E196FE1DD060E040141
:100C9A00166F010E176F900E186F010E196FD7DDC0
:100CAA00060E0401166F010E176FC80E186F000E9C
:100CBA00196FCDDD060E0401166F010E176FC80EEF
:100CCA00186F000E196FC3DDB80E0401166F010EFE
:100CDA00176F900E186F010E196FB9DDB80E040167
:100CEA00166F010E176F400E186F060E196FAFDDE3
:020CFA001200E6
:100CFC00100E0401166F030E176F0A0E186F000EFC
:100D0C00196FA4DD170E0401166F040E176F0A0E6F
:0A0D1C00186F000E196F9ADD120027
:100D2600F70E0401166F000E176FC80E186F000E2F
:100D3600196F8FDDC40E0401166F000E176FC80EF3
:100D4600186F000E196F85DDA50E0401166F000ED3
:100D5600176FC80E186F000E196F7BDD410E040168
:100D6600166F000E176FC80E186F000E196F71DD23
:020D7600120069
:100D7800970E0401166F040E176FC80E186F000E39
:100D8800196F66DD700E0401166F030E176FC80E1B
:100D9800186F000E196F5CDDBB0E0401166F020E92
:100DA800176FC80E186F000E196F52DD700E040110
:100DB800166F030E176F900E186F010E196F48DD2E
:100DC800BB0E0401166F020E176F900E186F010EFE
:100DD800196F3EDD4C0E0401166F020E176F900E50
:0A0DE800186F010E196F34DD1200C0
:100DF2008B908B820401016B015107080EE301C441
:100E02000BF439DE006B00513F0805E3FFC30BF41E
:100E120015DD002BF8D7012BEFD78B928B80016B5E
:100E2200015107080EE301C40BF425DE006B0051EB
:100E32003F0805E3FFC30BF401DD002BF8D7012BBC
:040E4200EFD71200D4
:100E46000B6A0A6A096A00500402F4CF09F0F3CF6C
:100E560008F001500502F4CF0BF0F3CF0AF0005072
:100E66000502F3500926F4500A22E86A0B220150C3
:100E76000402F3500926F4500A22E86A0B2208C03D
:100E860000F009C001F00AC002F00BC003F0120026
:100E9600060E0401166F010E176F900E186F010EE5
:100EA600196FD7DC060E0401166F010E176F900E30
:100EB600186F010E196FCDDC260E0401166F010E98
:100EC600176F200E186F030E196FC3DC060E040190
:100ED600166F010E176F200E186F030E196FB9DC0F
:100EE6005D0E0401166F010E176F200E186F030EAC
:100EF600196FAFDC4A0E0401166F010E176FE80E6C
:0A0F0600186F030E196FA5DC12002E
:100F10000401076B086B01C409F402C40AF4800ED3
:100F20000219006E800E005C02E1000E015D0BE212
:100F3000010E076F000E086F01510008096F02C40F
:100F40000AF4000E0A5709C40BF40AC40CF403C4D3
:100F50000DF404C40EF447DD060E056F000E066F97
:100F6000000E006E0651005C02E10551000819E216
:100F700005510325E16E06510421E26E010E055D67
:100F8000006E000E0659016E00500325E96E0150F7
:100F90000421EA6EEECFE6FF010E055F000E065B50
:100FA000DFD703C4E1FF04C4E2FF200EE66E075161
:100FB00008111AE0056B066B05510325E96E065111
:100FC0000421EA6EEE50200A03E1054B062BF4D70C
:100FD000010E055F000E065B05510325E16E06510B
:0A0FE0000421E26E2D0EE66E1200F1
:100FEA0010D0800E0401016F1AD0C00E016F17D005
:100FFA00940E016F14D0D40E016F11D0800E016FC0
:10100A000ED004010151010AECE00151020AEDE09F
:10101A000151030AEDE00151040AEDE0EFD70205A0
:10102A00006E0151002600C001F400C012F427EC42
:10103A0002F04E900301FF6BFF5104010325E96E94
:10104A00000E0421EA6EEE520FE00301FF51040183
:10105A000325E96E000E0421EA6EEECF0BF426ECAE
:0C106A0004F00301FF2BE8D74E801200B9
:10107600969296909290929292949296849284905E
:101086008096809480928090F8EC01F0F8EC01F064
:10109600F8EC01F0808280808482F3EC01F0849287
:1010A600F8EC01F08482F3EC01F08492F8EC01F0A4
:1010B6008482F3EC01F08492F8EC01F08090848253
:1010C600F3EC01F08492F8EC01F08482F3EC01F089
:1010D6008492809280868482F3EC01F08492F8EC0C
:1010E60001F0809680808482F3EC01F084928090F7
:1010F6008482F3EC01F08492F8EC01F08482F3EC44
:1011060001F0849280808482F3EC01F08492F8EC02
:1011160001F080908482F3EC01F0849280868084D2
:10112600808280808482F3EC01F08492F8EC01F0F6
:041136004E801200D5
:10113A000401006B046B056B0051070847E30B6B56
:10114A00B1DC00C40BF493DC0B6B99DC0301FF6B7D
:10115A00FF513F0814E3040104510125F66E0551BD
:10116A000221F76E000E0321F86E0900F5CF0BF489
:10117A001FEC04F0044B052B0301FF2BE9D7400EAB
:10118A0004010B6F8FDC00C40BF471DC400E0B6F93
:10119A0076DC400E0301FF6FFF517F0814E3040160
:1011AA0004510125F66E05510221F76E000E032146
:1011BA00F86E0900F5CF0BF41FEC04F0044B052B75
:0E11CA000301FF2BE9D70401002BB6D712005A
:1011D8000900F5CFE6FF0006FBE10106F9E1120080
:1011E80013C451F014C452F015C401F0010E006E7E
:1011F800015004E000360090FF0FFBD700C050F00C
:10120800001E00C04FF0120E04011325E96E000EF7
:101218001421EA6E0050EF16120EE95E0050EF1628
:021228001200B2
:10122A00A00E0401036F0F0E046F000E056F066F08
:10123A00A00E006E0F0E016E000E026E000E036EFF
:10124A0001C404F002C405F0000E066E076E66ECD7
:10125A0002F000C003F401C004F402C005F403C0A4
:10126A0006F4000E035C08E1000E025C05E1020EC2
:10127A00015C02E1940E005C01E231D0940E035F3E
:10128A00020E045B000E055B065B050E006E005045
:10129A0007E00633053304330333069FFF0FF8D7FD
:1012AA0003C400F004C401F005C402F006C403F04C
:1012BA00010E035F000E045B055B065B0050011024
:1012CA00021003100CE00000000000000000000003
:1012DA00000000000000000000000000E1D712003A
:1012EA005C6A5A6A5B6A949A9498949494969490D5
:1012FA0094928B9A120E006E000E016E830E0024D9
:10130A00E16E0F0E0120E26EE66A8B948B968B904B
:10131A008B828B8A3F0E836E22EC02F0C00E836EA4
:10132A0022EC02F08B808B923F0E836E22EC02F04D
:0A133A00C00E836E22EC02F01200D8
:10134400A1EC7DF00F01386B396B3A6B3B6B3C6B56
:10135400926A070E936E946A956A966AF19CF29269
:10136400F288F19AF090F086F198F092F088F28E7B
:10137400BADF0301FF6B3BDD7CDE010E126F27EC4D
:1013840002F00C0E126F27EC02F0010E016F010E39
:10139400026F2B0E036F000E046F25DE010E040195
:1013A400016F0A0E026F240E036F000E046F1BDE22
:1013B400000E461802E1010E451816E11C0E040148
:1013C400016FB70E026F000E036FB5DE040E0B6ED5
:1013D4000C0E0C6E330E0D6E0D2EFED70C2EFCD79C
:1013E4000B2EFAD700000000000E461802E1010E91
:1013F400451816E104011C0E016FB30E026F000EB6
:10140400036F99DE040E0B6E0C0E0C6E330E0D6E14
:101414000D2EFED70C2EFCD70B2EFAD700000000A1
:10142400000E461802E1040E45181CE1000E3C189B
:1014340002E1010E3B1816E104011C0E016FAF0E10
:10144400026F000E036F77DE040E0B6E0C0E0C6E33
:10145400330E0D6E0D2EFED70C2EFCD70B2EFAD7A5
:1014640000000000000E461802E1040E45181CE1BD
:10147400000E3C1802E1010E3B1816E104011C0E9B
:10148400016FC30E026F000E036F55DE040E0B6E68
:101494000C0E0C6E330E0D6E0D2EFED70C2EFCD7DB
:1014A4000B2EFAD700000000000E461802E1040ECD
:1014B40045181CE1000E3C1802E1020E3B1816E12F
:1014C40004011C0E016FBF0E026F000E036F33DEAA
:1014D400040E0B6E0C0E0C6E330E0D6E0D2EFED71D
:1014E4000C2EFCD70B2EFAD700000000000E461875
:1014F40002E1040E45181CE1000E3C1802E1020E44
:101504003B1816E104011C0E016FAF0E026F000EB2
:10151400036F11DE040E0B6E0C0E0C6E330E0D6E8B
:101524000D2EFED70C2EFCD70B2EFAD70000000090
:10153400000E461802E1040E45181CE1000E3C188A
:1015440002E1030E3B1816E104011C0E016FBB0EF1
:10155400026F000E036FEFDD040E0B6E0C0E0C6EAB
:10156400330E0D6E0D2EFED70C2EFCD70B2EFAD794
:1015740000000000000E461802E1040E45181CE1AC
:10158400000E3C1802E1030E3B1816E104011C0E88
:10159400016FAF0E026F000E036FCDDD040E0B6EF4
:1015A4000C0E0C6E330E0D6E0D2EFED70C2EFCD7CA
:1015B4000B2EFAD700000000000E461802E1020EBE
:1015C400451836E1000E3E1802E1000E3D1830E1E8
:1015D40004011C0E016F9F0E026F000E036FABDD42
:1015E40043C001F444C002F41EDE3FC000F040C01A
:1015F40001F022C004F023C005F023DC4150002692
:101604004250012200C041F001C042F000C001F488
:1016140001C002F4530E036F000E046F77DC020E58
:10162400016F0A0E026F530E036F000E046FDBDCB2
:10163400000E461802E1020E45183EE1800E006ECF
:10164400800E3E18005C02E13D50000835E21C0E9D
:101654000401016F9B0E026F000E036F6CDD43C02B
:1016640001F444C002F4DFDD010E3D5E000E3E5A7B
:101674003FC000F040C001F022C004F023C005F0D8
:1016840023EC07F0415000264250012200C041F0F3
:1016940001C042F000C001F401C002F4530E036F14
:1016A400000E046F33DC020E016F0A0E026F530E3C
:1016B400036F000E046F97DC000E461802E1020E61
:1016C400451813E1000E3E1802E1000E3D180DE12D
:1016D4001C0E0401016F970E026F000E036F2BDDC9
:1016E40043C001F444C002F49EDD000E461802E13A
:1016F400020E45181AE1800E006E800E3E18005C42
:1017040002E13D50000811E204011C0E016FAB0E12
:10171400026F000E036F0FDD43C001F444C002F4F6
:1017240082DD010E3D5E000E3E5A000E461802E1B7
:10173400020E451838E1000E3E1802E1000E3D1875
:1017440032E104011C0E016F9F0E026F000E036F45
:10175400F2DC43C001F444C002F465DD3FC000F094
:1017640040C001F022C004F023C005F023EC07F0D0
:10177400415000264250012200C041F001C042F015
:1017840000C001F401C002F4530E036F000E046F95
:1017940088EC07F0020E016F0A0E026F530E036FFE
:1017A400000E046F20DC000E461802E1020E4518FC
:1017B40040E1800E006E800E3E18005C02E13D5058
:1017C400000837E21C0E0401016F9B0E026F000E2D
:1017D400036FB1DC43C001F444C002F424DD010E04
:1017E4003D5E000E3E5A3FC000F040C001F022C0F2
:1017F40004F023C005F023EC07F0415000264250CA
:10180400012200C041F001C042F000C001F401C057
:1018140002F4530E036F000E046F88EC07F0020EFF
:10182400016F0A0E026F530E036F000E046FF5EC86
:1018340007F0000E461802E1020E451813E1000EEF
:101844003E1802E1000E3D180DE11C0E0401016F6B
:10185400970E026F000E036F6EDC43C001F444C0A8
:1018640002F4E1DC000E461802E1020E45181AE10A
:10187400800E006E800E3E18005C02E13D500008B0
:1018840011E204011C0E016FAB0E026F000E036F18
:1018940052DC43C001F444C002F4C5DC010E3D5ED9
:1018A400000E3E5A000E461802E1020E45183DE1B4
:1018B400000E3E1802E1000E3D1837E104011C0E33
:1018C400016F9F0E026F000E036F35DC43C001F4FD
:1018D40044C002F4A8DC3950435E3A50445A3FC035
:1018E40000F040C001F022C004F023C005F023EC56
:1018F40007F0415000264250012200C041F001C0CF
:1019040042F000C001F401C002F4530E036F000E54
:10191400046F88EC07F0020E016F0A0E026F530E7B
:10192400036F000E046FF5EC07F0000E461802E199
:10193400020E451845E1800E006E800E3E18005CD4
:1019440002E13D5000083CE21C0E0401016F9B0EB5
:10195400026F000E036F9DEC08F043C001F444C015
:1019640002F461DC010E3D5E000E3E5A3950435EC6
:101974003A50445A3FC000F040C001F022C004F085
:1019840023C005F023EC07F0415000264250012209
:1019940000C041F001C042F000C001F401C002F4F3
:1019A400530E036F000E046F88EC07F0020E016FF4
:1019B4000A0E026F530E036F000E046FF5EC07F06E
:1019C400000E461802E1020E451814E1000E3E18FE
:1019D40002E1000E3D180EE11C0E0401016F970E8A
:1019E400026F000E036F9DEC08F043C001F444C085
:1019F40002F419DC000E461802E1020E45181CE13F
:101A0400800E006E800E3E18005C02E13D5000081E
:101A140013E204011C0E016FAB0E026F000E036F84
:101A24009DEC08F043C001F444C002F415EC09F045
:101A3400010E3D5E000E3E5A000E461802E1020EF3
:101A440045183BE1000E3E1802E1000E3D1835E159
:101A540004011C0E016F9F0E026F000E036F9DECBC
:101A640008F043C001F444C002F415EC09F03FC08F
:101A740000F040C001F022C004F023C005F023ECC4
:101A840007F0415000264250012200C041F001C03D
:101A940042F000C001F401C002F4530E036F000EC3
:101AA400046F88EC07F0020E016F0A0E026F530EEA
:101AB400036F000E046FF5EC07F0000E461802E108
:101AC400020E451842E1800E006E800E3E18005C46
:101AD40002E13D50000839E21C0E0401016F9B0E27
:101AE400026F000E036F9DEC08F043C001F444C084
:101AF40002F415EC09F0010E3D5E000E3E5A3FC0A3
:101B040000F040C001F022C004F023C005F023EC33
:101B140007F0415000264250012200C041F001C0AC
:101B240042F000C001F401C002F4530E036F000E32
:101B3400046F88EC07F0020E016F0A0E026F530E59
:101B4400036F000E046FF5EC07F0000E461802E177
:101B5400020E451815E1000E3E1802E1000E3D1874
:101B64000FE11C0E0401016F970E026F000E036F4C
:101B74009DEC08F043C001F444C002F415EC09F0F4
:101B8400000E461802E1020E45181CE1800E006E9C
:101B9400800E3E18005C02E13D50000813E204018F
:101BA4001C0E016FAB0E026F000E036F9DEC08F06C
:101BB40043C001F444C002F415EC09F0010E3D5E8B
:101BC400000E3E5A000E461802E1020E45183BE193
:101BD400000E3E1802E1000E3D1835E104011C0E12
:101BE400016F9F0E026F000E036F9DEC08F043C05F
:101BF40001F444C002F415EC09F03FC000F040C009
:101C040001F022C004F023C005F023EC07F041509A
:101C140000264250012200C041F001C042F000C041
:101C240001F401C002F4530E036F000E046F88EC3C
:101C340007F0020E016F0A0E026F530E036F000EBF
:101C4400046FF5EC07F0000E461802E1020E451889
:101C540042E1800E006E800E3E18005C02E13D50B1
:101C6400000839E21C0E0401016F9B0E026F000E86
:101C7400036F9DEC08F043C001F444C002F415EC7A
:101C840009F0010E3D5E000E3E5A3FC000F040C018
:101C940001F022C004F023C005F023EC07F041500A
:101CA40000264250012200C041F001C042F000C0B1
:101CB40001F401C002F4530E036F000E046F88ECAC
:101CC40007F0020E016F0A0E026F530E036F000E2F
:101CD400046FF5EC07F0000E461802E1020E4518F9
:101CE40019E1000E3E1802E1000E3D1813E11C0E2E
:101CF4000401016F970E026F000E036F9DEC08F054
:101D040043C001F444C002F415EC09F03950435EB9
:101D14003A50445A000E461802E1020E451820E1DA
:101D2400800E006E800E3E18005C02E13D500008FB
:101D340017E204011C0E016FAB0E026F000E036F5D
:101D44009DEC08F043C001F444C002F415EC09F022
:101D5400010E3D5E000E3E5A3950435E3A50445ADD
:101D6400000E461802E1020E45183BE1000E3E1833
:101D740002E1000E3D1835E104011C0E016FA70EAF
:101D8400026F000E036F9DEC08F043C001F444C0E1
:101D940002F415EC09F03FC000F040C001F022C08D
:101DA40004F023C005F023EC07F041500026425014
:101DB400012200C041F001C042F000C001F401C0A2
:101DC40002F4530E036F000E046F88EC07F0020E4A
:101DD400016F0A0E026F530E036F000E046FF5ECD1
:101DE40007F0000E461802E1020E451842E1800E8B
:101DF400006E800E3E18005C02E13D50000839E29E
:101E04001C0E0401016FA30E026F000E036F9DEC04
:101E140008F043C001F444C002F415EC09F0010ECB
:101E24003D5E000E3E5A3FC000F040C001F022C0AB
:101E340004F023C005F023EC07F041500026425083
:101E4400012200C041F001C042F000C001F401C011
:101E540002F4530E036F000E046F88EC07F0020EB9
:101E6400016F0A0E026F530E036F000E046FF5EC40
:101E740007F0000E461802E1020E451815E1000EA7
:101E84003E1802E1000E3D180FE11C0E0401016F23
:101E9400C70E026F000E036F9DEC08F043C001F4FF
:101EA40044C002F415EC09F0000E461802E1020EDB
:101EB40045181CE1800E006E800E3E18005C02E1A5
:101EC4003D50000813E204011C0E016FEB0E026F7B
:101ED400000E036F9DEC08F043C001F444C002F40B
:101EE40015EC09F0010E3D5E000E3E5A000E461838
:101EF40002E1020E45183BE1000E3E1802E1000E1D
:101F04003D1835E104011C0E016FE70E026F000E4F
:101F1400036F9DEC08F043C001F444C002F415ECD7
:101F240009F03FC000F040C001F022C004F023C01B
:101F340005F023EC07F0415000264250012200C076
:101F440041F001C042F000C001F401C002F4530E9C
:101F5400036F000E046F88EC07F0020E016F0A0E87
:101F6400026F530E036F000E046FF5EC07F0000EC2
:101F7400461802E1020E451842E1800E006E800E02
:101F84003E18005C02E13D50000839E21C0E0401D9
:101F9400016FE30E026F000E036F9DEC08F043C067
:101FA40001F444C002F415EC09F0010E3D5E000E8C
:101FB4003E5A3FC000F040C001F022C004F023C0EC
:101FC40005F023EC07F0415000264250012200C0E6
:101FD40041F001C042F000C001F401C002F4530E0C
:101FE400036F000E046F88EC07F0020E016F0A0EF7
:101FF400026F530E036F000E046FF5EC07F0000E32
:10200400461802E1020E451815E1000E3E1802E1E1
:10201400000E3D180FE11C0E0401016FF70E026F54
:10202400000E036F9DEC08F043C001F444C002F4B9
:1020340015EC09F0000E461802E1020E45181CE1E9
:10204400800E006E800E3E18005C02E13D500008D8
:1020540013E204011C0E016FF30E026F000E036FF6
:102064009DEC08F043C001F444C002F415EC09F0FF
:10207400010E3D5E000E3E5A000E461802E1020EAD
:1020840045183FE1000E3E1802E1000E3D1839E10B
:1020940004011C0E016FEF0E026F000E036F9DEC26
:1020A40008F043C001F444C002F415EC09F03950BF
:1020B400435E3A50445A3FC000F040C001F022C091
:1020C40004F023C005F023EC07F0415000264250F1
:1020D400012200C041F001C042F000C001F401C07F
:1020E40002F4530E036F000E046F88EC07F0020E27
:1020F400016F0A0E026F530E036F000E046FF5ECAE
:1021040007F0000E461802E1020E451846E1800E63
:10211400006E800E3E18005C02E13D5000083DE276
:102124001C0E0401016FD30E026F000E036F9DECB1
:1021340008F043C001F444C002F415EC09F0010EA8
:102144003D5E000E3E5A3950435E3A50445A3FC0F9
:1021540000F040C001F022C004F023C005F023ECDD
:1021640007F0415000264250012200C041F001C056
:1021740042F000C001F401C002F4530E036F000EDC
:10218400046F88EC07F0020E016F0A0E026F530E03
:10219400036F000E046FF5EC07F0000E461802E121
:1021A400020E451815E1000E3E1802E1000E3D181E
:1021B4000FE11C0E0401016FCF0E026F000E036FBE
:1021C4009DEC08F043C001F444C002F415EC09F09E
:1021D400000E461802E1020E45181CE1800E006E46
:1021E400800E3E18005C02E13D50000813E2040139
:1021F4001C0E016FCB0E026F000E036F9DEC08F0F6
:1022040043C001F444C002F415EC09F0010E3D5E34
:10221400000E3E5A000E461802E1020E45183BE13C
:10222400000E3E1802E1000E3D1835E104011C0EBB
:10223400016FDF0E026F000E036F9DEC08F043C0C8
:1022440001F444C002F415EC09F03FC000F040C0B2
:1022540001F022C004F023C005F023EC07F0415044
:1022640000264250012200C041F001C042F000C0EB
:1022740001F401C002F4530E036F000E046F88ECE6
:1022840007F0020E016F0A0E026F530E036F000E69
:10229400046FF5EC07F0000E461802E1020E451833
:1022A40042E1800E006E800E3E18005C02E13D505B
:1022B400000839E21C0E0401016FDB0E026F000EF0
:1022C400036F9DEC08F043C001F444C002F415EC24
:1022D40009F0010E3D5E000E3E5A3FC000F040C0C2
:1022E40001F022C004F023C005F023EC07F04150B4
:1022F40000264250012200C041F001C042F000C05B
:1023040001F401C002F4530E036F000E046F88EC55
:1023140007F0020E016F0A0E026F530E036F000ED8
:10232400046FF5EC07F0000E461802E1020E4518A2
:102334001CE1000E3E1802E1000E3D1816E11C0ED1
:102344000401016FD70E026F000E036F9DEC08F0BD
:1023540043C001F444C002F415EC09F0000E361831
:1023640002E1010E3518D8B4F282000E461802E1DB
:10237400020E45181CE1800E006E800E3E18005CB3
:1023840002E13D50000813E204011C0E016F930E9C
:10239400026F000E036F9DEC08F043C001F444C0CB
:1023A40002F415EC09F0010E3D5E000E3E5A000EDB
:1023B400461802E1020E45183BE1000E3E1802E108
:1023C400000E3D1835E104011C0E016F4F0E026F23
:1023D400000E036F9DEC08F043C001F444C002F406
:1023E40015EC09F03FC000F040C001F022C004F039
:1023F40023C005F023EC07F041500026425001228F
:1024040000C041F001C042F000C001F401C002F478
:10241400530E036F000E046F88EC07F0020E016F79
:102424000A0E026F530E036F000E046FF5EC07F0F3
:10243400000E461802E1020E451842E1800E006EBD
:10244400800E3E18005C02E13D50000839E21C0E8B
:102454000401016F4B0E026F000E036F9DEC08F038
:1024640043C001F444C002F415EC09F0010E3D5ED2
:10247400000E3E5A3FC000F040C001F022C004F0FC
:1024840023C005F023EC07F04150002642500122FE
:1024940000C041F001C042F000C001F401C002F4E8
:1024A400530E036F000E046F88EC07F0020E016FE9
:1024B4000A0E026F530E036F000E046FF5EC07F063
:1024C400000E461802E1020E45180AE1000E3E18FD
:1024D40002E1000E3D1804E1030E456E000E466E47
:1024E400000E461802E1020E451820E1800E006E2F
:1024F400800E3E18005C02E13D50000817E21C0EFD
:102504000401016F470E026F000E036F9DEC08F08B
:1025140043C001F444C002F415EC09F0010E3D5E21
:10252400000E3E5A3950435E3A50445A000E461843
:1025340002E1020E451831E1000E3E1802E1000EE0
:102544003D182BE10401030E456E000E466E3FC09C
:1025540000F040C001F022C004F023C005F023ECD9
:1025640007F0415000264250012200C041F001C052
:1025740042F000C001F401C002F4530E036F000ED8
:10258400046F88EC07F0020E016F0A0E026F530EFF
:10259400036F000E046FF5EC07F0000E461802E11D
:1025A400020E451842E1800E006E800E3E18005C5B
:1025B40002E13D50000839E21C0E0401016F5B0E7C
:1025C400026F000E036F9DEC08F043C001F444C099
:1025D40002F415EC09F0010E3D5E000E3E5A3FC0B8
:1025E40000F040C001F022C004F023C005F023EC49
:1025F40007F0415000264250012200C041F001C0C2
:1026040042F000C001F401C002F4530E036F000E47
:10261400046F88EC07F0020E016F0A0E026F530E6E
:10262400036F000E046FF5EC07F0000E461802E18C
:10263400020E45180AE1000E3E1802E1000E3D1894
:1026440004E1030E456E000E466E000E461802E1CC
:10265400020E45181CE1800E006E800E3E18005CD0
:1026640002E13D50000813E21C0E0401016F570EF5
:10267400026F000E036F9DEC08F043C001F444C0E8
:1026840002F415EC09F0010E3D5E000E3E5A000EF8
:10269400461802E1020E451831E1000E3E1802E12F
:1026A400000E3D182BE10401030E456E000E466E2C
:1026B4003FC000F040C001F022C004F023C005F088
:1026C40023EC07F0415000264250012200C041F0A3
:1026D40001C042F000C001F401C002F4530E036FC4
:1026E400000E046F88EC07F0020E016F0A0E026FF1
:1026F400530E036F000E046FF5EC07F0000E46183E
:1027040002E1020E451842E1800E006E800E3E1872
:10271400005C02E13D50000839E21C0E0401016F27
:10272400530E026F000E036F9DEC08F043C001F4DA
:1027340044C002F415EC09F0010E3D5E000E3E5A51
:102744003FC000F040C001F022C004F023C005F0F7
:1027540023EC07F0415000264250012200C041F012
:1027640001C042F000C001F401C002F4530E036F33
:10277400000E046F88EC07F0020E016F0A0E026F60
:10278400530E036F000E046FF5EC07F0000E4618AD
:1027940002E1020E45180AE1000E3E1802E1000EA5
:1027A4003D1804E1030E456E000E466E000E4618F9
:1027B40002E1020E45181CE1800E006E800E3E18E8
:1027C400005C02E13D50000813E21C0E0401016F9D
:1027D400370E026F000E036F9DEC08F043C001F446
:1027E40044C002F415EC09F0010E3D5E000E3E5AA1
:1027F400000E461802E1020E451831E1000E3E18A3
:1028040002E1000E3D182BE10401030E456E000E9B
:10281400466E3FC000F040C001F022C004F023C067
:1028240005F023EC07F0415000264250012200C07D
:1028340041F001C042F000C001F401C002F4530EA3
:10284400036F000E046F88EC07F0020E016F0A0E8E
:10285400026F530E036F000E046FF5EC07F0000EC9
:10286400461802E1020E451846E1800E006E800E05
:102874003E18005C02E13D5000083DE21C0E0401DC
:10288400016F330E026F000E036F9DEC08F043C01E
:1028940001F444C002F415EC09F0010E3D5E000E93
:1028A4003E5A3950435E3A50445A3FC000F040C04B
:1028B40001F022C004F023C005F023EC07F04150DE
:1028C40000264250012200C041F001C042F000C085
:1028D40001F401C002F4530E036F000E046F88EC80
:1028E40007F0020E016F0A0E026F530E036F000E03
:1028F400046FF5EC07F0000E461802E1020E4518CD
:102904000AE1000E3E1802E1000E3D1804E1030E38
:10291400456E000E466E000E461802E1020E451882
:102924001CE1800E006E800E3E18005C02E13D50FA
:10293400000813E21C0E0401016F2F0E026F000E3B
:10294400036F9DEC08F043C001F444C002F415EC9D
:1029540009F0010E3D5E000E3E5A000E461802E1DB
:10296400020E45183BE1000E3E1802E1000E3D1830
:1029740035E104011C0E016F430E026F000E036F5C
:102984009DEC08F043C001F444C002F415EC09F0D6
:102994003FC000F040C001F022C004F023C005F0A5
:1029A40023EC07F0415000264250012200C041F0C0
:1029B40001C042F000C001F401C002F4530E036FE1
:1029C400000E046F88EC07F0020E016F0A0E026F0E
:1029D400530E036F000E046FF5EC07F0000E46185B
:1029E40002E1020E451842E1800E006E800E3E1890
:1029F400005C02E13D50000839E21C0E0401016F45
:102A04003F0E026F000E036F9DEC08F043C001F40B
:102A140044C002F415EC09F0010E3D5E000E3E5A6E
:102A24003FC000F040C001F022C004F023C005F014
:102A340023EC07F0415000264250012200C041F02F
:102A440001C042F000C001F401C002F4530E036F50
:102A5400000E046F88EC07F0020E016F0A0E026F7D
:102A6400530E036F000E046FF5EC07F0000E4618CA
:102A740002E1020E451815E1000E3E1802E1000EB7
:102A84003D180FE11C0E0401016F3B0E026F000E96
:102A9400036F9DEC08F043C001F444C002F415EC4C
:102AA40009F0000E461802E1020E45181CE1800EE2
:102AB400006E800E3E18005C02E13D50000813E2F7
:102AC40004011C0E016F5F0E026F000E036F9DEC7C
:102AD40008F043C001F444C002F415EC09F0010EFF
:102AE4003D5E000E3E5A000E461802E1020E4518E5
:102AF4003BE1000E3E1802E1000E3D1835E10401F1
:102B04001C0E016F830E026F000E036F9DEC08F024
:102B140043C001F444C002F415EC09F03FC000F0D6
:102B240040C001F022C004F023C005F023EC07F0FC
:102B3400415000264250012200C041F001C042F041
:102B440000C001F401C002F4530E036F000E046FC1
:102B540088EC07F0020E016F0A0E026F530E036F2A
:102B6400000E046FF5EC07F0000E461802E1020EA9
:102B7400451842E1800E006E800E3E18005C02E1B2
:102B84003D50000839E21C0E0401016F7F0E026FF4
:102B9400000E036F9DEC08F043C001F444C002F43E
:102BA40015EC09F0010E3D5E000E3E5A3FC000F0E8
:102BB40040C001F022C004F023C005F023EC07F06C
:102BC400415000264250012200C041F001C042F0B1
:102BD40000C001F401C002F4530E036F000E046F31
:102BE40088EC07F0020E016F0A0E026F530E036F9A
:102BF400000E046FF5EC07F0000E461802E1020E19
:102C0400451819E1000E3E1802E1000E3D1813E1CB
:102C14001C0E0401016F7B0E026F000E036F9DEC0E
:102C240008F043C001F444C002F415EC09F0395033
:102C3400435E3A50445A000E461802E1020E45180B
:102C440020E1800E006E800E3E18005C02E13D50D3
:102C5400000817E204011C0E016F8F0E026F000EB4
:102C6400036F9DEC08F043C001F444C002F415EC7A
:102C740009F0010E3D5E000E3E5A3950435E3A5053
:102C8400445A000E461802E1020E451802E1314A88
:102C9400322A800E006E800E3218005C02E1315040
:102CA400030835E2316A326A000E3C1802E1010E73
:102CB4003B1805E1050E456E000E466EF282000ECD
:102CC4003C1802E1020E3B180EE10401060E456EAB
:102CD400000E466E1C0E016F8B0E026F000E036F0A
:102CE4009DEC08F0F282000E3C1802E1030E3B1842
:102CF4000EE10401070E456E000E466E1C0E016FB8
:102D0400870E026F000E036F9DEC08F0F282800EB6
:102D14003418006E800E4218005C02E14150335CAE
:102D240019E2040141C033F042C034F041C001F45F
:102D340042C002F4470E036F000E046F88EC07F0E4
:102D4400020E016F010E026F470E036F000E046F37
:102D5400F5EC07F0000E461802E1030E451807E1F2
:102D6400000E381802E1010E3718D8B4F282000EB2
:102D7400461802E1030E451817E11C0E0401016F09
:102D84006B0E026F000E036F9DEC08F0040E0B6EC9
:102D94000C0E0C6E330E0D6E0D2EFED70C2EFCD7C2
:102DA4000B2EFAD700000000000E461802E1030EB5
:102DB400451817E104011C0E016F670E026F000E27
:102DC400036F9DEC08F0040E0B6E0C0E0C6E330EAC
:102DD4000D6E0D2EFED70C2EFCD70B2EFAD700004D
:102DE4000000000E461802E1050E45182DE104010D
:102DF4001C0E016F630E026F000E036F9DEC08F052
:102E0400040E0B6E0C0E0C6E330E0D6E0D2EFED7D3
:102E14000C2EFCD70B2EFAD7000000001C0E016FFD
:102E2400770E026F000E036F9DEC08F0040E0B6E1C
:102E34000C0E0C6E330E0D6E0D2EFED70C2EFCD721
:102E44000B2EFAD700000000000E461802E1060E11
:102E540045182DE104011C0E016F730E026F000E64
:102E6400036F9DEC08F0040E0B6E0C0E0C6E330E0B
:102E74000D6E0D2EFED70C2EFCD70B2EFAD70000AC
:102E840000001C0E016F8B0E026F000E036F9DEC91
:102E940008F0040E0B6E0C0E0C6E330E0D6E0D2E20
:102EA400FED70C2EFCD70B2EFAD700000000000E24
:102EB400461802E1070E45182CE104011C0E016FAF
:102EC4006F0E026F000E036F9DEC08F00B0E0B6E7D
:102ED400260E0C6E5D0E0D6E0D2EFED70C2EFCD73D
:102EE4000B2EFAD7000000001C0E016F870E026F34
:102EF400000E036F9DEC08F0150E0B6E4B0E0C6E5E
:102F0400BE0E0D6E0D2EFED70C2EFCD70B2EFAD74F
:082F14000000DAEF09F0FFD71D
:10FB420010EE22F0250E006E010E016E1C0EF66EF6
:0EFB5200FB0EF76E000EF86EECEC08F01200E1
:102F1C00FFFFFFFFFFFFFFFFFFFFFFFFFFFFFFFFB5
:102F2C007F1F0100000000000000000000000000F6
:102F3C00000000000000000000FCFFF3F3F3FFFFB3
:102F4C00FFFFFFFFFFFFFCFC000000000000000083
:102F5C000000000000000000000000000000000065
:102F6C000000000000000000000000000000000055
:102F7C0000008080C04040404040C0C08000000045
:102F8C000000000000000000000000000000000035
:102F9C00FFFFFFFFFFFFFFFFFFFF7F3F1F0F07013B
:102FAC000000000000000000F08080000000000025
:102FBC000000808080E0E0F0F0FFFFFFFFFF47475C
:102FCC00C404040404000000000000000000000021
:102FDC0000000000000000000000000000000000E5
:102FEC0000000000000000004060001848484848FD
:102FFC004C464341404040404040404041424242A8
:10300C0042464C48586000000000000000000000E0
:10301C001F1F0F0F07070303010000000000000033
:10302C0000000000000000000F0F1F1F7CFCFCFCC8
:10303C00FFFFFFFFFFFFFFFFFFFFFF7F0F0F0000F2
:10304C000100000000000000000000000000000073
:10305C000000000000000000000000000000000064
:10306C000000000000000000000000000000000054
:10307C000000000000000000000000000000000044
:10308C000000000000000000000000000000000034
:10309C000000000000000000000000000000000024
:1030AC000000000000000000000000000000000311
:1030BC00FF9F9F0703030307FF80800000000000B1
:1030CC0000000000000000000000000000000000F4
:1030DC0000000000000000000000000000000000E4
:1030EC0000000000000000000000000000000000D4
:1030FC0000000000000000000000000000000000C4
:10310C0000000000000000000000000000000000B3
:10311C00F8FCFCFC00000000FEFFFFFFFE00FCFEC4
:10312C00FEF800000000000000808000000080809D
:10313C000000000000000000000000000000000083
:10314C000000000000000000000000000000000073
:10315C000000000000000000000000000000000063
:10316C000000000000000000000000000000000053
:10317C000000000000000000000000000000000043
:10318C000000000000000000000000000000000033
:10319C001F3F7F7FE0E0E0E0FFFFFFFFFF0F0F0F1F
:1031AC0007030000000000003F7FFFC0C0FFFFFFCF
:1031BC00FF0000FEFEFC000000000000000000000C
:1031CC0000000000000000000000000000000000F3
:1031DC0000000000000000000000000000000000E3
:1031EC0000000000000000000000000000000000D3
:1031FC0000000000000000000000000000000000C3
:10320C0000000000000000000000000000000000B2
:10321C008808880889098909FF7FFF7FFF088808CB
:10322C00880888088808880888088808887FFF7FAD
:10323C00FF0B8B0B8B09880888088808880888087E
:10324C0088088808880888088808880888088808F2
:10325C0088088808880888088808880888088808E2
:10326C0088088808880888088808880888088808D2
:10327C0088088808880888088808880888088808C2
:10328C0088088808880888088808880888088808B2
:10329C00AA55AA55AA55AA55AA55AA55AA55AA552A
:1032AC00AA55AA55AA55AA55AA55AA55AA55AA551A
:1032BC00AA55AA55AA55AA55AA55AA55AA55AA550A
:1032CC00AA55AA55AA55AA55AA55AA55AA55AA55FA
:1032DC00AA55AA55AA55AA55AA55AA55AA55AA55EA
:1032EC00AA55AA55AA55AA55AA55AA55AA55AA55DA
:1032FC00AA55AA55AA55AA55AA55AA55AA55AA55CA
:10330C00AA55AA55AA55AA55AA55AA55AA55AA55B9
:10331C00FFFFFFFFFFFFFFFFFFFFFFFFFFFFFFFFB1
:10332C007F1F0100000000000000000000000000F2
:10333C00000000000000000000FCFFF3F3F3FFFFAF
:10334C00FFFFFFFFFFFFFCFC00000000000000007F
:10335C000000000000000000000000000000000061
:10336C000000000000000000000000000000000051
:10337C0000008080C04040404040C0C08000000041
:10338C000000000000000000000000000000000031
:10339C00FFFFFFFFFFFFFFFFFFFF7F3F1F0F070137
:1033AC000000000000000000F08080000000000021
:1033BC000000808080E0E0F0F0FFFFFFFFFF474758
:1033CC00C40404040400000000000000000000001D
:1033DC0000000000000000000000000000000000E1
:1033EC0000000000000000004060001848484848F9
:1033FC004C464341404040404040404041424242A4
:10340C0042464C48586000000000000000000000DC
:10341C001F1F0F0F0707030301000000000000002F
:10342C0000000000000000000F0F1F1F7CFCFCFCC4
:10343C00FFFFFFFFFFFFFFFFFFFFFF7F0F0F0000EE
:10344C00010000000000000000000000000000006F
:10345C000000000000000000000000000000000060
:10346C000000000000000000000000000000000050
:10347C000000000000000000000000000000000040
:10348C000000000000000000000000000000000030
:10349C000000000000000000000000000000000020
:1034AC00000000000000000000000000000000030D
:1034BC00FF9F9F0703030307FF80800000000000AD
:1034CC0000000000000000000000000000000000F0
:1034DC0000000000000000000000000000000000E0
:1034EC0000000000000000000000000000000000D0
:1034FC0000000000000000000000000000000000C0
:10350C0000000000000000000000000000000000AF
:10351C000000000000000000F8FCFCFC00000000B3
:10352C00FEFFFFFFFE00FCFEFEF8000000000000A6
:10353C00008080000000808000000000000000007F
:10354C00000000000000000000000000000000006F
:10355C00000000000000000000000000000000005F
:10356C00000000000000000000000000000000004F
:10357C00000000000000000000000000000000003F
:10358C00000000000000000000000000000000002F
:10359C0000000000000000001F3F7F7FE0E0E0E043
:1035AC00FFFFFFFFFF0F0F0F0703000000000000DD
:1035BC003F7FFFC0C0FFFFFFFF0000FEFEFC0000CE
:1035CC0000000000000000000000000000000000EF
:1035DC0000000000000000000000000000000000DF
:1035EC0000000000000000000000000000000000CF
:1035FC0000000000000000000000000000000000BF
:10360C0000000000000000000000000000000000AE
:10361C00088808880888088808880888098909891A
:10362C007FFF7FFF7F8808880888088808880888BB
:10363C000888088808FF7FFF7F8B0B8B0B89088815
:10364C0008880888088808880888088808880888EE
:10365C0008880888088808880888088808880888DE
:10366C0008880888088808880888088808880888CE
:10367C0008880888088808880888088808880888BE
:10368C0008880888088808880888088808880888AE
:10369C0055AA55AA55AA55AA55AA55AA55AA55AA26
:1036AC0055AA55AA55AA55AA55AA55AA55AA55AA16
:1036BC0055AA55AA55AA55AA55AA55AA55AA55AA06
:1036CC0055AA55AA55AA55AA55AA55AA55AA55AAF6
:1036DC0055AA55AA55AA55AA55AA55AA55AA55AAE6
:1036EC0055AA55AA55AA55AA55AA55AA55AA55AAD6
:1036FC0055AA55AA55AA55AA55AA55AA55AA55AAC6
:10370C0055AA55AA55AA55AA55AA55AA55AA55AAB5
:10371C00FFFFFFFFFFFFFFFFFFFFFFFFFFFFFFFFAD
:10372C007F1F0100000000000000000000000000EE
:10373C00000000000000000000FCFFF3F3F3FFFFAB
:10374C00FFFFFFFFFFFFFCFC00000000000000007B
:10375C00000000000000000000000000000000005D
:10376C00000000000000000000000000000000004D
:10377C0000008080C04040404040C0C0800000003D
:10378C00000000000000000000000000000000002D
:10379C00FFFFFFFFFFFFFFFFFFFF7F3F1F0F070133
:1037AC000000000000000000F0808000000000001D
:1037BC000000808080E0E0F0F0FFFFFFFFFF474754
:1037CC00C404040404000000000000000000000019
:1037DC0000000000000000000000000000000000DD
:1037EC0000000000000000004060001848484848F5
:1037FC004C464341404040404040404041424242A0
:10380C0042464C48586000000000000000000000D8
:10381C001F1F0F0F0707030301000000000000002B
:10382C0000000000000000000F0F1F1F7CFCFCFCC0
:10383C00FFFFFFFFFFFFFFFFFFFFFF7F0F0F0000EA
:10384C00010000000000000000000000000000006B
:10385C00000000000000000000000000000000005C
:10386C00000000000000000000000000000000004C
:10387C00000000000000000000000000000000003C
:10388C00000000000000000000000000000000002C
:10389C00000000000000000000000000000000001C
:1038AC000000000000000000000000000000000309
:1038BC00FF9F9F0703030307FF80800000000000A9
:1038CC0000000000000000000000000000000000EC
:1038DC0000000000000000000000000000000000DC
:1038EC0000000000000000000000000000000000CC
:1038FC0000000000000000000000000000000000BC
:10390C0000000000000000000000000000000000AB
:10391C00000000000000000000000000000000009B
:10392C00F8FCFCFC00000000FEFFFFFFFE00FCFEAC
:10393C00FEF8000000000000008080000000808085
:10394C00000000000000000000000000000000006B
:10395C00000000000000000000000000000000005B
:10396C00000000000000000000000000000000004B
:10397C00000000000000000000000000000000003B
:10398C00000000000000000000000000000000002B
:10399C00000000000000000000000000000000001B
:1039AC001F3F7F7FE0E0E0E0FFFFFFFFFF0F0F0F07
:1039BC0007030000000000003F7FFFC0C0FFFFFFB7
:1039CC00FF0000FEFEFC00000000000000000000F4
:1039DC0000000000000000000000000000000000DB
:1039EC0000000000000000000000000000000000CB
:1039FC0000000000000000000000000000000000BB
:103A0C0000000000000000000000000000000000AA
:103A1C00880888088808880888088808880888081A
:103A2C008808880889098909FF7FFF7FFF088808B3
:103A3C00880888088808880888088808887FFF7F95
:103A4C00FF0B8B0B8B098808880888088808880866
:103A5C0088088808880888088808880888088808DA
:103A6C0088088808880888088808880888088808CA
:103A7C0088088808880888088808880888088808BA
:103A8C0088088808880888088808880888088808AA
:103A9C00AA55AA55AA55AA55AA55AA55AA55AA5522
:103AAC00AA55AA55AA55AA55AA55AA55AA55AA5512
:103ABC00AA55AA55AA55AA55AA55AA55AA55AA5502
:103ACC00AA55AA55AA55AA55AA55AA55AA55AA55F2
:103ADC00AA55AA55AA55AA55AA55AA55AA55AA55E2
:103AEC00AA55AA55AA55AA55AA55AA55AA55AA55D2
:103AFC00AA55AA55AA55AA55AA55AA55AA55AA55C2
:103B0C00AA55AA55AA55AA55AA55AA55AA55AA55B1
:103B1C00FFFFFFFFFFFFFFFFFFFFFFFFFFFFFFFFA9
:103B2C007F1F0100000000000000000000000000EA
:103B3C000000000000000000000000000000000079
:103B4C000000000000000000000000000000000069
:103B5C000000000000000000000000000000000059
:103B6C000000000000000000000000000000000049
:103B7C0000008080C04040404040C0C08000000039
:103B8C000000000000000000000000000000000029
:103B9C00FFFFFFFFFFFFFFFFFFFF7F3F1F0F07012F
:103BAC000000000000000000000000000000000009
:103BBC0000000000000000000000000000000000F9
:103BCC0000000000000000000000000000000000E9
:103BDC0000000000000000000000000000000000D9
:103BEC0000000000000000004060001848484848F1
:103BFC004C4643414040404040404040414242429C
:103C0C0042464C48586000000000000000000000D4
:103C1C001F1F0F0F07070303010000000000000027
:103C2C000000000000000000000000000000000088
:103C3C000000000000000000000080808080808078
:103C4C008080808080800000000000000000000068
:103C5C000000000000000000000000000000000058
:103C6C000000000000000000000000000000000048
:103C7C000000000000000000000000000000000038
:103C8C000000000000000000000000000000000028
:103C9C000000000000000000000000000000000018
:103CAC000000000000000000000000000000000008
:103CBC00000000000000000000FEFFF9F9F9FFFF12
:103CCC007F7F7F7F7F7F7E7E0000000000000000F2
:103CDC0000000000000000000000000000000000D8
:103CEC0000000000000000000000000000000000C8
:103CFC0000000000000000000000000000000000B8
:103D0C0000000000000000000000000000000000A7
:103D1C00FEF80000000000000080800000008080A1
:103D2C000000000000000000F8C0C080000000008F
:103D3C008080C0C0C0F0F0F8F8FFFFFFFFFF232326
:103D4C00E20202020200000000000000000000007D
:103D5C000000000000000000000000000000000057
:103D6C000000000000000000000000000000000047
:103D7C000000000000000000000000000000000037
:103D8C000000000000000000000000000000000027
:103D9C0007030000000000003F7FFFC0C0FFFFFFD3
:103DAC00FF0000FEFEFC000007070F0F3E7E7EFEAC
:103DBC00FFFFFFFFFFFFFFFFFF7F7F3F07070000B5
:103DCC0000000000000000000000000000000000E7
:103DDC0000000000000000000000000000000000D7
:103DEC0000000000000000000000000000000000C7
:103DFC0000000000000000000000000000000000B7
:103E0C0000000000000000000000000000000000A6
:103E1C00880888088808880888088808887FFF7FB1
:103E2C00FF0B8B0B8B098808880888088808880981
:103E3C00BF2F8F0B890989098B0A8A088808880883
:103E4C0088088808880888088808880888088808E6
:103E5C0088088808880888088808880888088808D6
:103E6C0088088808880888088808880888088808C6
:103E7C0088088808880888088808880888088808B6
:103E8C0088088808880888088808880888088808A6
:103E9C00AA55AA55AA55AA55AA55AA55AA55AA551E
:103EAC00AA55AA55AA55AA55AA55AA55AA55AA550E
:103EBC00AA55AA55AA55AA55AA55AA55AA55AA55FE
:103ECC00AA55AA55AA55AA55AA55AA55AA55AA55EE
:103EDC00AA55AA55AA55AA55AA55AA55AA55AA55DE
:103EEC00AA55AA55AA55AA55AA55AA55AA55AA55CE
:103EFC00AA55AA55AA55AA55AA55AA55AA55AA55BE
:103F0C00AA55AA55AA55AA55AA55AA55AA55AA55AD
:103F1C00FFFFFFFFFFFFFFFFFFFFFFFFFFFFFFFFA5
:103F2C007F1F0100000000000000000000000000E6
:103F3C00000000000000000000FCFFF3F3F3FFFFA3
:103F4C00FFFFFFFFFFFFFCFC000000000000000073
:103F5C000000000000000000000000000000000055
:103F6C000000000000000000000000000000000045
:103F7C0000008080C04040404040C0C08000000035
:103F8C000000000000000000000000000000000025
:103F9C00FFFFFFFFFFFFFFFFFFFF7F3F1F0F07012B
:103FAC000000000000000000F08080000000000015
:103FBC000000808080E0E0F0F0FFFFFFFFFF47474C
:103FCC00C404040404000000000000000000000011
:103FDC0000000000000000000000000000000000D5
:103FEC0000000000000000004060001848484848ED
:103FFC004C46434140404040404040404142424298
:10400C0042464C48586000000000000000000000D0
:10401C001F1F0F0F07070303010000000000000023
:10402C0000000000000000000F0F1F1F7CFCFCFCB8
:10403C00FFFFFFFFFFFFFFFFFFFFFF7F0F0F0000E2
:10404C000100000000000000000000000000000063
:10405C000000000000000000000000000000000054
:10406C000000000000000000000000000000000044
:10407C000000000000000000000000000000000034
:10408C000000000000000000000000000000000024
:10409C000000000000000000000000000000000014
:1040AC000000000000000000000000000000000301
:1040BC00FF9F9F0703030307FF80800000000000A1
:1040CC0000000000000000000000000000000000E4
:1040DC0000000000000000000000000000000000D4
:1040EC0000000000000000000000000000000000C4
:1040FC0000000000000000000000000000000000B4
:10410C0000000000000000000000000000000000A3
:10411C00FEFFFFFFFE00FCFEFEF8000000000000AA
:10412C000080800000008080000000000000000083
:10413C000000000000000000000000000000000073
:10414C000000000000000000000000000000000063
:10415C000000000000000000000000000000000053
:10416C000000000000000000000000000000000043
:10417C000000000000000000000000000000000033
:10418C000000000000000000000000000000000023
:10419C00FFFFFFFFFF0F0F0F0703000000000000E1
:1041AC003F7FFFC0C0FFFFFFFF0000FEFEFC0000D2
:1041BC0000000000000000000000000000000000F3
:1041CC0000000000000000000000000000000000E3
:1041DC0000000000000000000000000000000000D3
:1041EC0000000000000000000000000000000000C3
:1041FC0000000000000000000000000000000000B3
:10420C0000000000000000000000000000000000A2
:10421C007FFF7FFF7F8808880888088808880888BF
:10422C000888088808FF7FFF7F8B0B8B0B89088819
:10423C0008880888088808880888088808880888F2
:10424C0008880888088808880888088808880888E2
:10425C0008880888088808880888088808880888D2
:10426C0008880888088808880888088808880888C2
:10427C0008880888088808880888088808880888B2
:10428C0008880888088808880888088808880888A2
:10429C0055AA55AA55AA55AA55AA55AA55AA55AA1A
:1042AC0055AA55AA55AA55AA55AA55AA55AA55AA0A
:1042BC0055AA55AA55AA55AA55AA55AA55AA55AAFA
:1042CC0055AA55AA55AA55AA55AA55AA55AA55AAEA
:1042DC0055AA55AA55AA55AA55AA55AA55AA55AADA
:1042EC0055AA55AA55AA55AA55AA55AA55AA55AACA
:1042FC0055AA55AA55AA55AA55AA55AA55AA55AABA
:10430C0055AA55AA55AA55AA55AA55AA55AA55AAA9
:10431C00FFFFFFFFFFFFFFFFFFFFFFFFFFFFFFFFA1
:10432C007F1F0100000000000000000000000000E2
:10433C000000000000000000000000000000000071
:10434C000000000000000000000000000000000061
:10435C000000000000000000000000000000000051
:10436C000000000000000000000000000000000041
:10437C0000008080C04040404040C0C08000000031
:10438C000000000000000000000000000000000021
:10439C00FFFFFFFFFFFFFFFFFFFF7F3F1F0F070127
:1043AC000000000000000000000000000000000001
:1043BC0000000000000000000000000000000000F1
:1043CC0000000000000000000000000000000000E1
:1043DC0000000000000000000000000000000000D1
:1043EC0000000000000000004060001848484848E9
:1043FC004C46434140404040404040404142424294
:10440C0042464C48586000000000000000000000CC
:10441C001F1F0F0F0707030301000000000000001F
:10442C000000000000000000000000000000000080
:10443C0000000000000000000000C0C0C0C0C0C0F0
:10444C00C0C0C0C0C0C000000000000000000000E0
:10445C000000000000000000000000000000000050
:10446C000000000000000000000000000000000040
:10447C000000000000000000000000000000000030
:10448C000000000000000000000000000000000020
:10449C000000000000000000000000000000000010
:1044AC000000000000000000000000000000000000
:1044BC00000000000000000000FFFFFCFCFCFFFF00
:1044CC003F3F3F3F3F3F3F3F0000000000000000E8
:1044DC0000000000000000000000000000000000D0
:1044EC0000000000000000000000000000000000C0
:1044FC0000000000000000000000000000000000B0
:10450C00000000000000000000000000000000009F
:10451C00FEFFFFFFFE00FCFEFEF8000000000000A6
:10452C00008080000000808000000000000000007F
:10453C00C0C0E0E0E0F8F8FCFCFFFFFFFFFF11114A
:10454C0071010101010000000000000000000000EA
:10455C00000000000000000000000000000000004F
:10456C00000000000000000000000000000000003F
:10457C00000000000000000000000000000000002F
:10458C00000000000000000000000000000000001F
:10459C00FFFFFFFFFF0F0F0F0703000000000000DD
:1045AC003F7FFFC0C0FFFFFFFF0000FEFEFC3FFF90
:1045BC00FFFFFFFFFFFFFFFFFFFF3F1F0303000095
:1045CC0000000000000000000000000000000000DF
:1045DC0000000000000000000000000000000000CF
:1045EC0000000000000000000000000000000000BF
:1045FC0000000000000000000000000000000000AF
:10460C00000000000000000000000000000000009E
:10461C007FFF7FFF7F8808880888088808880888BB
:10462C000888088808FF7FFF7F8B0B8B0B89088815
:10463C0008890B8A088808893FAF28880888088869
:10464C0008880888088808880888088808880888DE
:10465C0008880888088808880888088808880888CE
:10466C0008880888088808880888088808880888BE
:10467C0008880888088808880888088808880888AE
:10468C00088808880888088808880888088808889E
:10469C0055AA55AA55AA55AA55AA55AA55AA55AA16
:1046AC0055AA55AA55AA55AA55AA55AA55AA55AA06
:1046BC0055AA55AA55AA55AA55AA55AA55AA55AAF6
:1046CC0055AA55AA55AA55AA55AA55AA55AA55AAE6
:1046DC0055AA55AA55AA55AA55AA55AA55AA55AAD6
:1046EC0055AA55AA55AA55AA55AA55AA55AA55AAC6
:1046FC0055AA55AA55AA55AA55AA55AA55AA55AAB6
:10470C0055AA55AA55AA55AA55AA55AA55AA55AAA5
:10471C00FFFFFFFFFFFFFFFFFFFFFFFFFFFFFFFF9D
:10472C007F1F0100000000000000000000000000DE
:10473C00000000000000000000FCFFF3F3F3FFFF9B
:10474C00FFFFFFFFFFFFFCFC00000000000000006B
:10475C00000000000000000000000000000000004D
:10476C00000000000000000000000000000000003D
:10477C0000008080C04040404040C0C0800000002D
:10478C00000000000000000000000000000000001D
:10479C00FFFFFFFFFFFFFFFFFFFF7F3F1F0F070123
:1047AC000000000000000000F0808000000000000D
:1047BC000000808080E0E0F0F0FFFFFFFFFF474744
:1047CC00C404040404000000000000000000000009
:1047DC0000000000000000000000000000000000CD
:1047EC0000000000000000004060001848484848E5
:1047FC004C46434140404040404040404142424290
:10480C0042464C48586000000000000000000000C8
:10481C001F1F0F0F0707030301000000000000001B
:10482C0000000000000000000F0F1F1F7CFCFCFCB0
:10483C00FFFFFFFFFFFFFFFFFFFFFF7F0F0F0000DA
:10484C00010000000000000000000000000000005B
:10485C00000000000000000000000000000000004C
:10486C00000000000000000000000000000000003C
:10487C00000000000000000000000000000000002C
:10488C00000000000000000000000000000000001C
:10489C00000000000000000000000000000000000C
:1048AC0000000000000000000000000000000003F9
:1048BC00FF9F9F0703030307FF8080000000000099
:1048CC0000000000000000000000000000000000DC
:1048DC0000000000000000000000000000000000CC
:1048EC0000000000000000000000000000000000BC
:1048FC0000000000000000000000000000000000AC
:10490C00000000000000000000000000000000009B
:10491C00000000000000000000000000000000008B
:10492C00000000000000000000000000000000007B
:10493C00000000000000000000000000000000006B
:10494C00F8FCFCFC00000000FEFFFFFFFE00FCFE7C
:10495C00FEF8000000000000008080000000808055
:10496C00000000000000000000000000000000003B
:10497C00000000000000000000000000000000002B
:10498C00000000000000000000000000000000001B
:10499C00000000000000000000000000000000000B
:1049AC0000000000000000000000000000000000FB
:1049BC0000000000000000000000000000000000EB
:1049CC001F3F7F7FE0E0E0E0FFFFFFFFFF0F0F0FD7
:1049DC0007030000000000003F7FFFC0C0FFFFFF87
:1049EC00FF0000FEFEFC00000000000000000000C4
:1049FC0000000000000000000000000000000000AB
:104A0C00000000000000000000000000000000009A
:104A1C00880888088808880888088808880888080A
:104A2C0088088808880888088808880888088808FA
:104A3C0088088808880888088808880888088808EA
:104A4C008808880889098909FF7FFF7FFF08880883
:104A5C00880888088808880888088808887FFF7F65
:104A6C00FF0B8B0B8B098808880888088808880836
:104A7C0088088808880888088808880888088808AA
:104A8C00880888088808880888088808880888089A
:104A9C00AA55AA55AA55AA55AA55AA55AA55AA5512
:104AAC00AA55AA55AA55AA55AA55AA55AA55AA5502
:104ABC00AA55AA55AA55AA55AA55AA55AA55AA55F2
:104ACC00AA55AA55AA55AA55AA55AA55AA55AA55E2
:104ADC00AA55AA55AA55AA55AA55AA55AA55AA55D2
:104AEC00AA55AA55AA55AA55AA55AA55AA55AA55C2
:104AFC00AA55AA55AA55AA55AA55AA55AA55AA55B2
:104B0C00AA55AA55AA55AA55AA55AA55AA55AA55A1
:104B1C00FFFFFFFFFFFFFFFFFFFFFFFFFFFFFFFF99
:104B2C007F1F0100000000000000000000000000DA
:104B3C00000000000000000000FCFFF3F3F3FFFF97
:104B4C00FFFFFFFFFFFFFCFC000000000000000067
:104B5C000000000000000000000000000000000049
:104B6C000000000000000000000000000000000039
:104B7C0000008080C04040404040C0C08000000029
:104B8C000000000000000000000000000000000019
:104B9C00FFFFFFFFFFFFFFFFFFFF7F3F1F0F07011F
:104BAC000000000000000000F08080000000000009
:104BBC000000808080E0E0F0F0FFFFFFFFFF474740
:104BCC00C404040404000000000000000000000005
:104BDC0000000000000000000000000000000000C9
:104BEC0000000000000000004060001848484848E1
:104BFC004C4643414040404040404040414242428C
:104C0C0042464C48586000000000000000000000C4
:104C1C001F1F0F0F07070303010000000000000017
:104C2C0000000000000000000F0F1F1F7CFCFCFCAC
:104C3C00FFFFFFFFFFFFFFFFFFFFFF7F0F0F0000D6
:104C4C000100000000000000000000000000000057
:104C5C000000000000000000000000000000000048
:104C6C000000000000000000000000000000000038
:104C7C000000000000000000000000000000000028
:104C8C000000000000000000000000000000000018
:104C9C000000000000000000000000000000000008
:104CAC0000000000000000000000000000000003F5
:104CBC00FF9F9F0703030307FF8080000000000095
:104CCC0000000000000000000000000000000000D8
:104CDC0000000000000000000000000000000000C8
:104CEC0000000000000000000000000000000000B8
:104CFC0000000000000000000000000000000000A8
:104D0C000000000000000000000000000000000097
:104D1C000000000000000000000000000000000087
:104D2C000000000000000000000000000000000077
:104D3C000000000000000000000000000000000067
:104D4C000000000000000000F8FCFCFC000000006B
:104D5C00FEFFFFFFFE00FCFEFEF80000000000005E
:104D6C000080800000008080000000000000000037
:104D7C000000000000000000000000000000000027
:104D8C000000000000000000000000000000000017
:104D9C000000000000000000000000000000000007
:104DAC0000000000000000000000000000000000F7
:104DBC0000000000000000000000000000000000E7
:104DCC0000000000000000001F3F7F7FE0E0E0E0FB
:104DDC00FFFFFFFFFF0F0F0F070300000000000095
:104DEC003F7FFFC0C0FFFFFFFF0000FEFEFC000086
:104DFC0000000000000000000000000000000000A7
:104E0C000000000000000000000000000000000096
:104E1C000888088808880888088808880888088806
:104E2C0008880888088808880888088808880888F6
:104E3C0008880888088808880888088808880888E6
:104E4C0008880888088808880888088809890989D2
:104E5C007FFF7FFF7F880888088808880888088873
:104E6C000888088808FF7FFF7F8B0B8B0B890888CD
:104E7C0008880888088808880888088808880888A6
:104E8C000888088808880888088808880888088896
:104E9C0055AA55AA55AA55AA55AA55AA55AA55AA0E
:104EAC0055AA55AA55AA55AA55AA55AA55AA55AAFE
:104EBC0055AA55AA55AA55AA55AA55AA55AA55AAEE
:104ECC0055AA55AA55AA55AA55AA55AA55AA55AADE
:104EDC0055AA55AA55AA55AA55AA55AA55AA55AACE
:104EEC0055AA55AA55AA55AA55AA55AA55AA55AABE
:104EFC0055AA55AA55AA55AA55AA55AA55AA55AAAE
:104F0C0055AA55AA55AA55AA55AA55AA55AA55AA9D
:104F1C00FFFFFFFFFFFFFFFFFFFFFFFFFFFFFFFF95
:104F2C007F1F0100000000000000000000000000D6
:104F3C000000000000000000000000000000000065
:104F4C000000000000000000000000000000000055
:104F5C000000000000000000000000000000000045
:104F6C000000000000000000000000000000000035
:104F7C0000008080C04040404040C0C08000000025
:104F8C000000000000000000000000000000000015
:104F9C00FFFFFFFFFFFFFFFFFFFF7F3F1F0F07011B
:104FAC0000000000000000000000000000000000F5
:104FBC0000000000000000000000000000000000E5
:104FCC0000000000000000000000000000000000D5
:104FDC0000000000000000000000000000000000C5
:104FEC0000000000000000004060001848484848DD
:104FFC004C46434140404040404040404142424288
:10500C0042464C48586000000000000000000000C0
:10501C001F1F0F0F07070303010000000000000013
:10502C000000000000000000000000000000000074
:10503C0000000000000000000000C0C0C0C0C0C0E4
:10504C00C0C0C0C0C0C000000000000000000000D4
:10505C000000000000000000000000000000000044
:10506C000000000000000000000000000000000034
:10507C000000000000000000000000000000000024
:10508C000000000000000000000000000000000014
:10509C000000000000000000000000000000000004
:1050AC0000000000000000000000000000000000F4
:1050BC00000000000000000000FFFFFCFCFCFFFFF4
:1050CC003F3F3F3F3F3F3F3F0000000000000000DC
:1050DC0000000000000000000000000000000000C4
:1050EC0000000000000000000000000000000000B4
:1050FC0000000000000000000000000000000000A4
:10510C000000000000000000000000000000000093
:10511C000000000000000000000000000000000083
:10512C000000000000000000FCE0E0C000000000F7
:10513C00C0C0E0E0E0F8F8FCFCFFFFFFFFFF11113E
:10514C007101010101000000F8FCFCFC00000000F2
:10515C00FEFFFFFFFE00FCFEFEF80000000000005A
:10516C000080800000008080000000000000000033
:10517C000000000000000000000000000000000023
:10518C000000000000000000000000000000000013
:10519C000000000000000000000000000000000003
:1051AC000000000000000000030307071F3F3FFF43
:1051BC00FFFFFFFFFFFFFFFFFFFF3F1F0303000089
:1051CC0000000000000000001F3F7F7FE0E0E0E0F7
:1051DC00FFFFFFFFFF0F0F0F070300000000000091
:1051EC003F7FFFC0C0FFFFFFFF0000FEFEFC000082
:1051FC0000000000000000000000000000000000A3
:10520C000000000000000000000000000000000092
:10521C000888088808880888088808880888088802
:10522C0008880888088808880888088808880888F2
:10523C0008890B8A088808893FAF2888088808885D
:10524C0008880888088808880888088809890989CE
:10525C007FFF7FFF7F88088808880888088808886F
:10526C000888088808FF7FFF7F8B0B8B0B890888C9
:10527C0008880888088808880888088808880888A2
:10528C000888088808880888088808880888088892
:10529C0055AA55AA55AA55AA55AA55AA55AA55AA0A
:1052AC0055AA55AA55AA55AA55AA55AA55AA55AAFA
:1052BC0055AA55AA55AA55AA55AA55AA55AA55AAEA
:1052CC0055AA55AA55AA55AA55AA55AA55AA55AADA
:1052DC0055AA55AA55AA55AA55AA55AA55AA55AACA
:1052EC0055AA55AA55AA55AA55AA55AA55AA55AABA
:1052FC0055AA55AA55AA55AA55AA55AA55AA55AAAA
:10530C0055AA55AA55AA55AA55AA55AA55AA55AA99
:10531C00FFFFFFFFFFFFFFFFFFFFFFFFFFFFFFFF91
:10532C007F1F0100000000000000000000000000D2
:10533C00000000000000000000FCFFF3F3F3FFFF8F
:10534C00FFFFFFFFFFFFFCFC00000000000000005F
:10535C000000000000000000000000000000000041
:10536C000000000000000000000000000000000031
:10537C0000008080C04040404040C0C08000000021
:10538C000000000000000000000000000000000011
:10539C00FFFFFFFFFFFFFFFFFFFF7F3F1F0F070117
:1053AC000000000000000000F08080000000000001
:1053BC000000808080E0E0F0F0FFFFFFFFFF474738
:1053CC00C4040404040000000000000000000000FD
:1053DC0000000000000000000000000000000000C1
:1053EC0000000000000000004060001848484848D9
:1053FC004C46434140404040404040404142424284
:10540C0042464C48586000000000000000000000BC
:10541C001F1F0F0F0707030301000000000000000F
:10542C0000000000000000000F0F1F1F7CFCFCFCA4
:10543C00FFFFFFFFFFFFFFFFFFFFFF7F0F0F0000CE
:10544C00010000000000000000000000000000004F
:10545C000000000000000000000000000000000040
:10546C000000000000000000000000000000000030
:10547C000000000000000000000000000000000020
:10548C000000000000000000000000000000000010
:10549C000000000000000000000000000000000000
:1054AC0000000000000000000000000000000003ED
:1054BC00FF9F9F0703030307FF808000000000008D
:1054CC0000000000000000000000000000000000D0
:1054DC0000000000000000000000000000000000C0
:1054EC0000000000000000000000000000000000B0
:1054FC0000000000000000000000000000000000A0
:10550C00000000000000000000000000000000008F
:10551C00000000000000000000000000000000007F
:10552C000000000000000000F8FCFCFC0000000083
:10553C00FEFFFFFFFE00FCFEFEF800000000000076
:10554C00008080000000808000000000000000004F
:10555C00000000000000000000000000000000003F
:10556C00000000000000000000000000000000002F
:10557C00000000000000000000000000000000001F
:10558C00000000000000000000000000000000000F
:10559C0000000000000000000000000000000000FF
:1055AC0000000000000000001F3F7F7FE0E0E0E013
:1055BC00FFFFFFFFFF0F0F0F0703000000000000AD
:1055CC003F7FFFC0C0FFFFFFFF0000FEFEFC00009E
:1055DC0000000000000000000000000000000000BF
:1055EC0000000000000000000000000000000000AF
:1055FC00000000000000000000000000000000009F
:10560C00000000000000000000000000000000008E
:10561C0008880888088808880888088808880888FE
:10562C0008880888088808880888088809890989EA
:10563C007FFF7FFF7F88088808880888088808888B
:10564C000888088808FF7FFF7F8B0B8B0B890888E5
:10565C0008880888088808880888088808880888BE
:10566C0008880888088808880888088808880888AE
:10567C00088808880888088808880888088808889E
:10568C00088808880888088808880888088808888E
:10569C0055AA55AA55AA55AA55AA55AA55AA55AA06
:1056AC0055AA55AA55AA55AA55AA55AA55AA55AAF6
:1056BC0055AA55AA55AA55AA55AA55AA55AA55AAE6
:1056CC0055AA55AA55AA55AA55AA55AA55AA55AAD6
:1056DC0055AA55AA55AA55AA55AA55AA55AA55AAC6
:1056EC0055AA55AA55AA55AA55AA55AA55AA55AAB6
:1056FC0055AA55AA55AA55AA55AA55AA55AA55AAA6
:10570C0055AA55AA55AA55AA55AA55AA55AA55AA95
:10571C00FFFFFFFFFFFFFFFFFFFFFFFFFFFFFFFF8D
:10572C007F1F0100000000000000000000000000CE
:10573C00000000000000000000FCFFF3F3F3FFFF8B
:10574C00FFFFFFFFFFFFFCFC00000000000000005B
:10575C00000000000000000000000000000000003D
:10576C00000000000000000000000000000000002D
:10577C0000008080C04040404040C0C0800000001D
:10578C00000000000000000000000000000000000D
:10579C00FFFFFFFFFFFFFFFFFFFF7F3F1F0F070113
:1057AC000000000000000000F080800000000000FD
:1057BC000000808080E0E0F0F0FFFFFFFFFF474734
:1057CC00C4040404040000000000000000000000F9
:1057DC0000000000000000000000000000000000BD
:1057EC0000000000000000004060001848484848D5
:1057FC004C46434140404040404040404142424280
:10580C0042464C48586000000000000000000000B8
:10581C001F1F0F0F0707030301000000000000000B
:10582C0000000000000000000F0F1F1F7CFCFCFCA0
:10583C00FFFFFFFFFFFFFFFFFFFFFF7F0F0F0000CA
:10584C00010000000000000000000000000000004B
:10585C00000000000000000000000000000000003C
:10586C00000000000000000000000000000000002C
:10587C00000000000000000000000000000000001C
:10588C00000000000000000000000000000000000C
:10589C0000000000000000000000000000000000FC
:1058AC0000000000000000000000000000000003E9
:1058BC00FF9F9F0703030307FF8080000000000089
:1058CC0000000000000000000000000000000000CC
:1058DC0000000000000000000000000000000000BC
:1058EC0000000000000000000000000000000000AC
:1058FC00000000000000000000000000000000009C
:10590C00000000000000000000000000000000008B
:10591C00000000000000000000000000000000007B
:10592C00000000000000000000000000000000006B
:10593C00F8FCFCFC00000000FEFFFFFFFE00FCFE7C
:10594C00FEF8000000000000008080000000808055
:10595C00000000000000000000000000000000003B
:10596C00000000000000000000000000000000002B
:10597C00000000000000000000000000000000001B
:10598C00000000000000000000000000000000000B
:10599C0000000000000000000000000000000000FB
:1059AC0000000000000000000000000000000000EB
:1059BC001F3F7F7FE0E0E0E0FFFFFFFFFF0F0F0FD7
:1059CC0007030000000000003F7FFFC0C0FFFFFF87
:1059DC00FF0000FEFEFC00000000000000000000C4
:1059EC0000000000000000000000000000000000AB
:1059FC00000000000000000000000000000000009B
:105A0C00000000000000000000000000000000008A
:105A1C0088088808880888088808880888088808FA
:105A2C0088088808880888088808880888088808EA
:105A3C008808880889098909FF7FFF7FFF08880883
:105A4C00880888088808880888088808887FFF7F65
:105A5C00FF0B8B0B8B098808880888088808880836
:105A6C0088088808880888088808880888088808AA
